{
  "_format": "hh-sol-artifact-1",
  "contractName": "UfoTicket",
  "sourceName": "contracts/UfoTicket.sol",
  "abi": [
    {
      "inputs": [
        {
          "internalType": "address",
          "name": "ronkeToken",
          "type": "address"
        },
        {
          "internalType": "address",
          "name": "feeRecipient_",
          "type": "address"
        }
      ],
      "stateMutability": "nonpayable",
      "type": "constructor"
    },
    {
      "inputs": [
        {
          "internalType": "address",
          "name": "sender",
          "type": "address"
        },
        {
          "internalType": "uint256",
          "name": "tokenId",
          "type": "uint256"
        },
        {
          "internalType": "address",
          "name": "owner",
          "type": "address"
        }
      ],
      "name": "ERC721IncorrectOwner",
      "type": "error"
    },
    {
      "inputs": [
        {
          "internalType": "address",
          "name": "operator",
          "type": "address"
        },
        {
          "internalType": "uint256",
          "name": "tokenId",
          "type": "uint256"
        }
      ],
      "name": "ERC721InsufficientApproval",
      "type": "error"
    },
    {
      "inputs": [
        {
          "internalType": "address",
          "name": "approver",
          "type": "address"
        }
      ],
      "name": "ERC721InvalidApprover",
      "type": "error"
    },
    {
      "inputs": [
        {
          "internalType": "address",
          "name": "operator",
          "type": "address"
        }
      ],
      "name": "ERC721InvalidOperator",
      "type": "error"
    },
    {
      "inputs": [
        {
          "internalType": "address",
          "name": "owner",
          "type": "address"
        }
      ],
      "name": "ERC721InvalidOwner",
      "type": "error"
    },
    {
      "inputs": [
        {
          "internalType": "address",
          "name": "receiver",
          "type": "address"
        }
      ],
      "name": "ERC721InvalidReceiver",
      "type": "error"
    },
    {
      "inputs": [
        {
          "internalType": "address",
          "name": "sender",
          "type": "address"
        }
      ],
      "name": "ERC721InvalidSender",
      "type": "error"
    },
    {
      "inputs": [
        {
          "internalType": "uint256",
          "name": "tokenId",
          "type": "uint256"
        }
      ],
      "name": "ERC721NonexistentToken",
      "type": "error"
    },
    {
      "inputs": [
        {
          "internalType": "address",
          "name": "owner",
          "type": "address"
        }
      ],
      "name": "OwnableInvalidOwner",
      "type": "error"
    },
    {
      "inputs": [
        {
          "internalType": "address",
          "name": "account",
          "type": "address"
        }
      ],
      "name": "OwnableUnauthorizedAccount",
      "type": "error"
    },
    {
      "inputs": [],
      "name": "ReentrancyGuardReentrantCall",
      "type": "error"
    },
    {
      "anonymous": false,
      "inputs": [
        {
          "indexed": true,
          "internalType": "address",
          "name": "owner",
          "type": "address"
        },
        {
          "indexed": true,
          "internalType": "address",
          "name": "approved",
          "type": "address"
        },
        {
          "indexed": true,
          "internalType": "uint256",
          "name": "tokenId",
          "type": "uint256"
        }
      ],
      "name": "Approval",
      "type": "event"
    },
    {
      "anonymous": false,
      "inputs": [
        {
          "indexed": true,
          "internalType": "address",
          "name": "owner",
          "type": "address"
        },
        {
          "indexed": true,
          "internalType": "address",
          "name": "operator",
          "type": "address"
        },
        {
          "indexed": false,
          "internalType": "bool",
          "name": "approved",
          "type": "bool"
        }
      ],
      "name": "ApprovalForAll",
      "type": "event"
    },
    {
      "anonymous": false,
      "inputs": [
        {
          "indexed": true,
          "internalType": "address",
          "name": "oldRecipient",
          "type": "address"
        },
        {
          "indexed": true,
          "internalType": "address",
          "name": "newRecipient",
          "type": "address"
        }
      ],
      "name": "FeeRecipientUpdated",
      "type": "event"
    },
    {
      "anonymous": false,
      "inputs": [
        {
          "indexed": true,
          "internalType": "address",
          "name": "previousOwner",
          "type": "address"
        },
        {
          "indexed": true,
          "internalType": "address",
          "name": "newOwner",
          "type": "address"
        }
      ],
      "name": "OwnershipTransferred",
      "type": "event"
    },
    {
      "anonymous": false,
      "inputs": [
        {
          "indexed": true,
          "internalType": "uint256",
          "name": "tokenId",
          "type": "uint256"
        },
        {
          "indexed": true,
          "internalType": "address",
          "name": "loser",
          "type": "address"
        },
        {
          "indexed": true,
          "internalType": "address",
          "name": "winner",
          "type": "address"
        },
        {
          "indexed": false,
          "internalType": "uint256",
          "name": "payoutRonke",
          "type": "uint256"
        },
        {
          "indexed": false,
          "internalType": "address",
          "name": "feeRecipient",
          "type": "address"
        },
        {
          "indexed": false,
          "internalType": "uint256",
          "name": "feeRonke",
          "type": "uint256"
        }
      ],
      "name": "TicketDestroyed",
      "type": "event"
    },
    {
      "anonymous": false,
      "inputs": [
        {
          "indexed": true,
          "internalType": "address",
          "name": "owner",
          "type": "address"
        },
        {
          "indexed": true,
          "internalType": "uint256",
          "name": "tokenId",
          "type": "uint256"
        }
      ],
      "name": "TicketMinted",
      "type": "event"
    },
    {
      "anonymous": false,
      "inputs": [
        {
          "indexed": true,
          "internalType": "address",
          "name": "from",
          "type": "address"
        },
        {
          "indexed": true,
          "internalType": "address",
          "name": "to",
          "type": "address"
        },
        {
          "indexed": true,
          "internalType": "uint256",
          "name": "tokenId",
          "type": "uint256"
        }
      ],
      "name": "Transfer",
      "type": "event"
    },
    {
      "inputs": [],
      "name": "LOSS_FEE",
      "outputs": [
        {
          "internalType": "uint256",
          "name": "",
          "type": "uint256"
        }
      ],
      "stateMutability": "view",
      "type": "function"
    },
    {
      "inputs": [],
      "name": "MINT_COST",
      "outputs": [
        {
          "internalType": "uint256",
          "name": "",
          "type": "uint256"
        }
      ],
      "stateMutability": "view",
      "type": "function"
    },
    {
      "inputs": [],
      "name": "WIN_REWARD",
      "outputs": [
        {
          "internalType": "uint256",
          "name": "",
          "type": "uint256"
        }
      ],
      "stateMutability": "view",
      "type": "function"
    },
    {
      "inputs": [
        {
          "internalType": "address",
          "name": "",
          "type": "address"
        }
      ],
      "name": "activeTokenIdOf",
      "outputs": [
        {
          "internalType": "uint256",
          "name": "",
          "type": "uint256"
        }
      ],
      "stateMutability": "view",
      "type": "function"
    },
    {
      "inputs": [
        {
          "internalType": "address",
          "name": "to",
          "type": "address"
        },
        {
          "internalType": "uint256",
          "name": "tokenId",
          "type": "uint256"
        }
      ],
      "name": "approve",
      "outputs": [],
      "stateMutability": "nonpayable",
      "type": "function"
    },
    {
      "inputs": [
        {
          "internalType": "address",
          "name": "owner",
          "type": "address"
        }
      ],
      "name": "balanceOf",
      "outputs": [
        {
          "internalType": "uint256",
          "name": "",
          "type": "uint256"
        }
      ],
      "stateMutability": "view",
      "type": "function"
    },
    {
      "inputs": [],
      "name": "feeRecipient",
      "outputs": [
        {
          "internalType": "address",
          "name": "",
          "type": "address"
        }
      ],
      "stateMutability": "view",
      "type": "function"
    },
    {
      "inputs": [
        {
          "internalType": "uint256",
          "name": "tokenId",
          "type": "uint256"
        }
      ],
      "name": "getApproved",
      "outputs": [
        {
          "internalType": "address",
          "name": "",
          "type": "address"
        }
      ],
      "stateMutability": "view",
      "type": "function"
    },
    {
      "inputs": [
        {
          "internalType": "address",
          "name": "owner",
          "type": "address"
        },
        {
          "internalType": "address",
          "name": "operator",
          "type": "address"
        }
      ],
      "name": "isApprovedForAll",
      "outputs": [
        {
          "internalType": "bool",
          "name": "",
          "type": "bool"
        }
      ],
      "stateMutability": "view",
      "type": "function"
    },
    {
      "inputs": [
        {
          "internalType": "uint256",
          "name": "",
          "type": "uint256"
        }
      ],
      "name": "isDestroyed",
      "outputs": [
        {
          "internalType": "bool",
          "name": "",
          "type": "bool"
        }
      ],
      "stateMutability": "view",
      "type": "function"
    },
    {
      "inputs": [
        {
          "components": [
            {
              "internalType": "uint16",
              "name": "maxHP",
              "type": "uint16"
            },
            {
              "internalType": "uint16",
              "name": "maxArmor",
              "type": "uint16"
            },
            {
              "internalType": "uint16",
              "name": "dmg",
              "type": "uint16"
            },
            {
              "internalType": "uint8",
              "name": "critChance",
              "type": "uint8"
            },
            {
              "internalType": "uint8",
              "name": "accuracy",
              "type": "uint8"
            },
            {
              "internalType": "uint16",
              "name": "maxFuel",
              "type": "uint16"
            }
          ],
          "internalType": "struct UfoTicket.Stats",
          "name": "s",
          "type": "tuple"
        }
      ],
      "name": "mint",
      "outputs": [
        {
          "internalType": "uint256",
          "name": "tokenId",
          "type": "uint256"
        }
      ],
      "stateMutability": "nonpayable",
      "type": "function"
    },
    {
      "inputs": [],
      "name": "name",
      "outputs": [
        {
          "internalType": "string",
          "name": "",
          "type": "string"
        }
      ],
      "stateMutability": "view",
      "type": "function"
    },
    {
      "inputs": [],
      "name": "owner",
      "outputs": [
        {
          "internalType": "address",
          "name": "",
          "type": "address"
        }
      ],
      "stateMutability": "view",
      "type": "function"
    },
    {
      "inputs": [
        {
          "internalType": "uint256",
          "name": "tokenId",
          "type": "uint256"
        }
      ],
      "name": "ownerOf",
      "outputs": [
        {
          "internalType": "address",
          "name": "",
          "type": "address"
        }
      ],
      "stateMutability": "view",
      "type": "function"
    },
    {
      "inputs": [],
      "name": "renounceOwnership",
      "outputs": [],
      "stateMutability": "nonpayable",
      "type": "function"
    },
    {
      "inputs": [
        {
          "internalType": "uint256",
          "name": "loserTokenId",
          "type": "uint256"
        },
        {
          "internalType": "address",
          "name": "winner",
          "type": "address"
        }
      ],
      "name": "resolveMatch",
      "outputs": [],
      "stateMutability": "nonpayable",
      "type": "function"
    },
    {
      "inputs": [],
      "name": "ronke",
      "outputs": [
        {
          "internalType": "contract IERC20",
          "name": "",
          "type": "address"
        }
      ],
      "stateMutability": "view",
      "type": "function"
    },
    {
      "inputs": [
        {
          "internalType": "address",
          "name": "from",
          "type": "address"
        },
        {
          "internalType": "address",
          "name": "to",
          "type": "address"
        },
        {
          "internalType": "uint256",
          "name": "tokenId",
          "type": "uint256"
        }
      ],
      "name": "safeTransferFrom",
      "outputs": [],
      "stateMutability": "nonpayable",
      "type": "function"
    },
    {
      "inputs": [
        {
          "internalType": "address",
          "name": "from",
          "type": "address"
        },
        {
          "internalType": "address",
          "name": "to",
          "type": "address"
        },
        {
          "internalType": "uint256",
          "name": "tokenId",
          "type": "uint256"
        },
        {
          "internalType": "bytes",
          "name": "data",
          "type": "bytes"
        }
      ],
      "name": "safeTransferFrom",
      "outputs": [],
      "stateMutability": "nonpayable",
      "type": "function"
    },
    {
      "inputs": [
        {
          "internalType": "address",
          "name": "operator",
          "type": "address"
        },
        {
          "internalType": "bool",
          "name": "approved",
          "type": "bool"
        }
      ],
      "name": "setApprovalForAll",
      "outputs": [],
      "stateMutability": "nonpayable",
      "type": "function"
    },
    {
      "inputs": [
        {
          "internalType": "address",
          "name": "next",
          "type": "address"
        }
      ],
      "name": "setFeeRecipient",
      "outputs": [],
      "stateMutability": "nonpayable",
      "type": "function"
    },
    {
      "inputs": [
        {
          "internalType": "uint256",
          "name": "",
          "type": "uint256"
        }
      ],
      "name": "statsOf",
      "outputs": [
        {
          "internalType": "uint16",
          "name": "maxHP",
          "type": "uint16"
        },
        {
          "internalType": "uint16",
          "name": "maxArmor",
          "type": "uint16"
        },
        {
          "internalType": "uint16",
          "name": "dmg",
          "type": "uint16"
        },
        {
          "internalType": "uint8",
          "name": "critChance",
          "type": "uint8"
        },
        {
          "internalType": "uint8",
          "name": "accuracy",
          "type": "uint8"
        },
        {
          "internalType": "uint16",
          "name": "maxFuel",
          "type": "uint16"
        }
      ],
      "stateMutability": "view",
      "type": "function"
    },
    {
      "inputs": [
        {
          "internalType": "bytes4",
          "name": "interfaceId",
          "type": "bytes4"
        }
      ],
      "name": "supportsInterface",
      "outputs": [
        {
          "internalType": "bool",
          "name": "",
          "type": "bool"
        }
      ],
      "stateMutability": "view",
      "type": "function"
    },
    {
      "inputs": [],
      "name": "symbol",
      "outputs": [
        {
          "internalType": "string",
          "name": "",
          "type": "string"
        }
      ],
      "stateMutability": "view",
      "type": "function"
    },
    {
      "inputs": [
        {
          "internalType": "uint256",
          "name": "tokenId",
          "type": "uint256"
        }
      ],
      "name": "tokenURI",
      "outputs": [
        {
          "internalType": "string",
          "name": "",
          "type": "string"
        }
      ],
      "stateMutability": "view",
      "type": "function"
    },
    {
      "inputs": [
        {
          "internalType": "address",
          "name": "from",
          "type": "address"
        },
        {
          "internalType": "address",
          "name": "to",
          "type": "address"
        },
        {
          "internalType": "uint256",
          "name": "tokenId",
          "type": "uint256"
        }
      ],
      "name": "transferFrom",
      "outputs": [],
      "stateMutability": "nonpayable",
      "type": "function"
    },
    {
      "inputs": [
        {
          "internalType": "address",
          "name": "newOwner",
          "type": "address"
        }
      ],
      "name": "transferOwnership",
      "outputs": [],
      "stateMutability": "nonpayable",
      "type": "function"
    }
  ],
  "bytecode": "0x60a060405260016009553480156200001657600080fd5b5060405162001f1b38038062001f1b833981016040819052620000399162000207565b336040518060400160405280601181526020017014195dd4195dc8155193c8151a58dad95d607a1b8152506040518060400160405280600381526020016255464f60e81b8152508160009081620000919190620002e4565b506001620000a08282620002e4565b5050506001600160a01b038116620000d357604051631e4fbdf760e01b8152600060048201526024015b60405180910390fd5b620000de8162000198565b5060016007556001600160a01b038216620001265760405162461bcd60e51b81526020600482015260076024820152660726f6e6b653d360cc1b6044820152606401620000ca565b6001600160a01b0381166200016f5760405162461bcd60e51b815260206004820152600e60248201526d0666565526563697069656e743d360941b6044820152606401620000ca565b6001600160a01b03918216608052600880546001600160a01b03191691909216179055620003b0565b600680546001600160a01b038381166001600160a01b0319831681179093556040519116919082907f8be0079c531659141344cd1fd0a4f28419497f9722a3daafe3b4186f6b6457e090600090a35050565b80516001600160a01b03811681146200020257600080fd5b919050565b600080604083850312156200021b57600080fd5b6200022683620001ea565b91506200023660208401620001ea565b90509250929050565b634e487b7160e01b600052604160045260246000fd5b600181811c908216806200026a57607f821691505b6020821081036200028b57634e487b7160e01b600052602260045260246000fd5b50919050565b601f821115620002df57600081815260208120601f850160051c81016020861015620002ba5750805b601f850160051c820191505b81811015620002db57828155600101620002c6565b5050505b505050565b81516001600160401b038111156200030057620003006200023f565b620003188162000311845462000255565b8462000291565b602080601f831160018114620003505760008415620003375750858301515b600019600386901b1c1916600185901b178555620002db565b600085815260208120601f198616915b82811015620003815788860151825594840194600190910190840162000360565b5085821015620003a05787850151600019600388901b60f8161c191681555b5050505050600190811b01905550565b608051611b3a620003e160003960008181610230015281816106d4015281816109630152610a1f0152611b3a6000f3fe608060405234801561001057600080fd5b50600436106101a95760003560e01c806366a0fc56116100f9578063a22cb46511610097578063c87b56dd11610071578063c87b56dd1461043b578063e74b981b1461044e578063e985e9c514610461578063f2fde38b1461047457600080fd5b8063a22cb46514610405578063b88d4fde14610418578063c662e4811461042b57600080fd5b80637bc5d64d116100d35780637bc5d64d146103385780638da5cb5b146103dc57806395d89b41146103ed57806399e73bf7146103f557600080fd5b806366a0fc561461030a57806370a082311461031d578063715018a61461033057600080fd5b80631995ef541161016657806342842e0e1161014057806342842e0e146102b157806346904840146102c457806351948a04146102d75780636352211e146102f757600080fd5b80631995ef541461027557806323b872dd1461028b5780632ba92ad11461029e57600080fd5b806301ffc9a7146101ae57806306fdde03146101d6578063081812fc146101eb578063095ea7b3146102165780630efdf6411461022b578063142916f814610252575b600080fd5b6101c16101bc3660046115ef565b610487565b60405190151581526020015b60405180910390f35b6101de6104d9565b6040516101cd919061165c565b6101fe6101f936600461166f565b61056b565b6040516001600160a01b0390911681526020016101cd565b61022961022436600461169f565b610594565b005b6101fe7f000000000000000000000000000000000000000000000000000000000000000081565b6101c161026036600461166f565b600b6020526000908152604090205460ff1681565b61027d6105a3565b6040519081526020016101cd565b6102296102993660046116c9565b6105c2565b61027d6102ac366004611705565b610652565b6102296102bf3660046116c9565b610820565b6008546101fe906001600160a01b031681565b61027d6102e536600461171d565b600c6020526000908152604090205481565b6101fe61030536600461166f565b610840565b610229610318366004611738565b61084b565b61027d61032b36600461171d565b610b9a565b610229610be2565b61039e61034636600461166f565b600a6020526000908152604090205461ffff80821691620100008104821691640100000000820481169160ff660100000000000082048116926701000000000000008304909116916801000000000000000090041686565b6040805161ffff978816815295871660208701529386169385019390935260ff918216606085015216608083015290911660a082015260c0016101cd565b6006546001600160a01b03166101fe565b6101de610bf6565b61027d68056bc75e2d6310000081565b610229610413366004611772565b610c05565b6102296104263660046117bf565b610c10565b61027d680ad78ebc5ac620000081565b6101de61044936600461166f565b610c28565b61022961045c36600461171d565b610c9d565b6101c161046f36600461189b565b610d3e565b61022961048236600461171d565b610d6c565b60006001600160e01b031982166380ac58cd60e01b14806104b857506001600160e01b03198216635b5e139f60e01b145b806104d357506301ffc9a760e01b6001600160e01b03198316145b92915050565b6060600080546104e8906118c5565b80601f0160208091040260200160405190810160405280929190818152602001828054610514906118c5565b80156105615780601f1061053657610100808354040283529160200191610561565b820191906000526020600020905b81548152906001019060200180831161054457829003601f168201915b5050505050905090565b600061057682610daa565b506000828152600460205260409020546001600160a01b03166104d3565b61059f828233610de3565b5050565b6105bf68056bc75e2d63100000680ad78ebc5ac620000061190f565b81565b6001600160a01b0382166105f157604051633250574960e11b8152600060048201526024015b60405180910390fd5b60006105fe838333610df0565b9050836001600160a01b0316816001600160a01b03161461064c576040516364283d7b60e01b81526001600160a01b03808616600483015260248201849052821660448201526064016105e8565b50505050565b600061065c610e60565b336000908152600c6020526040902054156106aa5760405162461bcd60e51b815260206004820152600e60248201526d616c72656164792061637469766560901b60448201526064016105e8565b6040516323b872dd60e01b8152336004820152306024820152680ad78ebc5ac620000060448201527f00000000000000000000000000000000000000000000000000000000000000006001600160a01b0316906323b872dd906064016020604051808303816000875af1158015610725573d6000803e3d6000fd5b505050506040513d601f19601f820116820180604052508101906107499190611922565b6107955760405162461bcd60e51b815260206004820152601960248201527f726f6e6b65207472616e7366657246726f6d206661696c65640000000000000060448201526064016105e8565b600980549060006107a58361193f565b909155506000818152600a6020526040902090915082906107c6828261197f565b5050336000818152600c602052604090208290556107e49082610e8a565b604051819033907fe3bc6f5972e89b7adec47f0277204f27cd981570e200dd4d408093535c9e8e6990600090a361081b6001600755565b919050565b61083b83838360405180602001604052806000815250610c10565b505050565b60006104d382610daa565b610853610ea4565b61085b610e60565b6001600160a01b03811661089c5760405162461bcd60e51b8152602060048201526008602482015267077696e6e65723d360c41b60448201526064016105e8565b6000828152600b602052604090205460ff16156108ef5760405162461bcd60e51b8152602060048201526011602482015270185b1c9958591e4819195cdd1c9bde5959607a1b60448201526064016105e8565b60006108fa83610840565b6000848152600b60209081526040808320805460ff191660011790556001600160a01b0384168352600c909152812055905061093583610ed1565b60405163a9059cbb60e01b81526001600160a01b03838116600483015268056bc75e2d6310000060248301527f0000000000000000000000000000000000000000000000000000000000000000169063a9059cbb906044016020604051808303816000875af11580156109ac573d6000803e3d6000fd5b505050506040513d601f19601f820116820180604052508101906109d09190611922565b610a125760405162461bcd60e51b81526020600482015260136024820152721c9bdb9ad9481c185e5bdd5d0819985a5b1959606a1b60448201526064016105e8565b6008546001600160a01b037f000000000000000000000000000000000000000000000000000000000000000081169163a9059cbb9116610a6468056bc75e2d63100000680ad78ebc5ac620000061190f565b6040516001600160e01b031960e085901b1681526001600160a01b03909216600483015260248201526044016020604051808303816000875af1158015610aaf573d6000803e3d6000fd5b505050506040513d601f19601f82011682018060405250810190610ad39190611922565b610b135760405162461bcd60e51b8152602060048201526011602482015270199959481c185e5bdd5d0819985a5b1959607a1b60448201526064016105e8565b6008546001600160a01b03808416918382169186917f8825cccd1cb557896842d5c57bf78fba1c3c6ca388e57351c1faf80d67fa17a69168056bc75e2d631000009116610b6982680ad78ebc5ac620000061190f565b604080519384526001600160a01b0390921660208401529082015260600160405180910390a45061059f6001600755565b60006001600160a01b038216610bc6576040516322718ad960e21b8152600060048201526024016105e8565b506001600160a01b031660009081526003602052604090205490565b610bea610ea4565b610bf46000610f0c565b565b6060600180546104e8906118c5565b61059f338383610f5e565b610c1b8484846105c2565b61064c3385858585610ffd565b6060610c3382610daa565b506000610c4b60408051602081019091526000815290565b90506000815111610c6b5760405180602001604052806000815250610c96565b80610c7584611128565b604051602001610c86929190611a7b565b6040516020818303038152906040525b9392505050565b610ca5610ea4565b6001600160a01b038116610cec5760405162461bcd60e51b815260206004820152600e60248201526d0666565526563697069656e743d360941b60448201526064016105e8565b600880546001600160a01b038381166001600160a01b0319831681179093556040519116919082907faaebcf1bfa00580e41d966056b48521fa9f202645c86d4ddf28113e617c1b1d390600090a35050565b6001600160a01b03918216600090815260056020908152604080832093909416825291909152205460ff1690565b610d74610ea4565b6001600160a01b038116610d9e57604051631e4fbdf760e01b8152600060048201526024016105e8565b610da781610f0c565b50565b6000818152600260205260408120546001600160a01b0316806104d357604051637e27328960e01b8152600481018490526024016105e8565b61083b83838360016111bb565b6000610dfd8484846112c1565b90506001600160a01b0381161580610e1c57506001600160a01b038416155b610c965760405162461bcd60e51b81526020600482015260156024820152745342543a206e6f6e2d7472616e7366657261626c6560581b60448201526064016105e8565b600260075403610e8357604051633ee5aeb560e01b815260040160405180910390fd5b6002600755565b61059f8282604051806020016040528060008152506113ba565b6006546001600160a01b03163314610bf45760405163118cdaa760e01b81523360048201526024016105e8565b6000610ee06000836000610df0565b90506001600160a01b03811661059f57604051637e27328960e01b8152600481018390526024016105e8565b600680546001600160a01b038381166001600160a01b0319831681179093556040519116919082907f8be0079c531659141344cd1fd0a4f28419497f9722a3daafe3b4186f6b6457e090600090a35050565b6001600160a01b038216610f9057604051630b61174360e31b81526001600160a01b03831660048201526024016105e8565b6001600160a01b03838116600081815260056020908152604080832094871680845294825291829020805460ff191686151590811790915591519182527f17307eab39ab6107e8899845ad3d59bd9653f200f220920489ca2b5937696c31910160405180910390a3505050565b6001600160a01b0383163b1561112157604051630a85bd0160e11b81526001600160a01b0384169063150b7a029061103f908890889087908790600401611aaa565b6020604051808303816000875af192505050801561107a575060408051601f3d908101601f1916820190925261107791810190611ae7565b60015b6110e3573d8080156110a8576040519150601f19603f3d011682016040523d82523d6000602084013e6110ad565b606091505b5080516000036110db57604051633250574960e11b81526001600160a01b03851660048201526024016105e8565b805160208201fd5b6001600160e01b03198116630a85bd0160e11b1461111f57604051633250574960e11b81526001600160a01b03851660048201526024016105e8565b505b5050505050565b60606000611135836113d2565b600101905060008167ffffffffffffffff811115611155576111556117a9565b6040519080825280601f01601f19166020018201604052801561117f576020820181803683370190505b5090508181016020015b600019016f181899199a1a9b1b9c1cb0b131b232b360811b600a86061a8153600a850494508461118957509392505050565b80806111cf57506001600160a01b03821615155b156112915760006111df84610daa565b90506001600160a01b0383161580159061120b5750826001600160a01b0316816001600160a01b031614155b801561121e575061121c8184610d3e565b155b156112475760405163a9fbf51f60e01b81526001600160a01b03841660048201526024016105e8565b811561128f5783856001600160a01b0316826001600160a01b03167f8c5be1e5ebec7d5bd14f71427d1e84f3dd0314c0f7b2291e5b200ac8c7c3b92560405160405180910390a45b505b5050600090815260046020526040902080546001600160a01b0319166001600160a01b0392909216919091179055565b6000828152600260205260408120546001600160a01b03908116908316156112ee576112ee8184866114aa565b6001600160a01b0381161561132c5761130b6000856000806111bb565b6001600160a01b038116600090815260036020526040902080546000190190555b6001600160a01b0385161561135b576001600160a01b0385166000908152600360205260409020805460010190555b60008481526002602052604080822080546001600160a01b0319166001600160a01b0389811691821790925591518793918516917fddf252ad1be2c89b69c2b068fc378daa952ba7f163c4a11628f55a4df523b3ef91a4949350505050565b6113c4838361150e565b61083b336000858585610ffd565b60008072184f03e93ff9f4daa797ed6e38ed64bf6a1f0160401b83106114115772184f03e93ff9f4daa797ed6e38ed64bf6a1f0160401b830492506040015b6d04ee2d6d415b85acef8100000000831061143d576d04ee2d6d415b85acef8100000000830492506020015b662386f26fc10000831061145b57662386f26fc10000830492506010015b6305f5e1008310611473576305f5e100830492506008015b612710831061148757612710830492506004015b60648310611499576064830492506002015b600a83106104d35760010192915050565b6114b5838383611573565b61083b576001600160a01b0383166114e357604051637e27328960e01b8152600481018290526024016105e8565b60405163177e802f60e01b81526001600160a01b0383166004820152602481018290526044016105e8565b6001600160a01b03821661153857604051633250574960e11b8152600060048201526024016105e8565b600061154683836000610df0565b90506001600160a01b0381161561083b576040516339e3563760e11b8152600060048201526024016105e8565b60006001600160a01b038316158015906115d15750826001600160a01b0316846001600160a01b031614806115ad57506115ad8484610d3e565b806115d157506000828152600460205260409020546001600160a01b038481169116145b949350505050565b6001600160e01b031981168114610da757600080fd5b60006020828403121561160157600080fd5b8135610c96816115d9565b60005b8381101561162757818101518382015260200161160f565b50506000910152565b6000815180845261164881602086016020860161160c565b601f01601f19169290920160200192915050565b602081526000610c966020830184611630565b60006020828403121561168157600080fd5b5035919050565b80356001600160a01b038116811461081b57600080fd5b600080604083850312156116b257600080fd5b6116bb83611688565b946020939093013593505050565b6000806000606084860312156116de57600080fd5b6116e784611688565b92506116f560208501611688565b9150604084013590509250925092565b600060c0828403121561171757600080fd5b50919050565b60006020828403121561172f57600080fd5b610c9682611688565b6000806040838503121561174b57600080fd5b8235915061175b60208401611688565b90509250929050565b8015158114610da757600080fd5b6000806040838503121561178557600080fd5b61178e83611688565b9150602083013561179e81611764565b809150509250929050565b634e487b7160e01b600052604160045260246000fd5b600080600080608085870312156117d557600080fd5b6117de85611688565b93506117ec60208601611688565b925060408501359150606085013567ffffffffffffffff8082111561181057600080fd5b818701915087601f83011261182457600080fd5b813581811115611836576118366117a9565b604051601f8201601f19908116603f0116810190838211818310171561185e5761185e6117a9565b816040528281528a602084870101111561187757600080fd5b82602086016020830137600060208483010152809550505050505092959194509250565b600080604083850312156118ae57600080fd5b6118b783611688565b915061175b60208401611688565b600181811c908216806118d957607f821691505b60208210810361171757634e487b7160e01b600052602260045260246000fd5b634e487b7160e01b600052601160045260246000fd5b818103818111156104d3576104d36118f9565b60006020828403121561193457600080fd5b8151610c9681611764565b600060018201611951576119516118f9565b5060010190565b6000813561ffff811681146104d357600080fd5b6000813560ff811681146104d357600080fd5b61ffff61198b83611958565b1681548161ffff19821617835563ffff00006119a960208601611958565b60101b16808363ffffffff1984161717845565ffff000000006119ce60408701611958565b60201b168365ffffffffffff1984161793508084831717855566ff0000000000006119fb6060880161196c565b60301b1666ff0000000000001985168317821717855550505050611a46611a246080840161196c565b825467ff00000000000000191660389190911b67ff0000000000000016178255565b61059f611a5560a08401611958565b825469ffff0000000000000000191660409190911b69ffff000000000000000016178255565b60008351611a8d81846020880161160c565b835190830190611aa181836020880161160c565b01949350505050565b6001600160a01b0385811682528416602082015260408101839052608060608201819052600090611add90830184611630565b9695505050505050565b600060208284031215611af957600080fd5b8151610c96816115d956fea2646970667358221220fd38a0796eaede5bec303add9a6fafe08c91f0a4b39d80c2d0742e76e432896964736f6c63430008140033",
  "linkReferences": {},
  "deployedLinkReferences": {}
}