{
  "_format": "hh-sol-artifact-1",
  "contractName": "UfoTicket",
  "sourceName": "contracts/UfoTicket.sol",
  "abi": [
    {
      "inputs": [
        {
          "internalType": "address",
          "name": "ronkeToken",
          "type": "address"
        }
      ],
      "stateMutability": "nonpayable",
      "type": "constructor"
    },
    {
      "inputs": [
        {
          "internalType": "address",
          "name": "sender",
          "type": "address"
        },
        {
          "internalType": "uint256",
          "name": "tokenId",
          "type": "uint256"
        },
        {
          "internalType": "address",
          "name": "owner",
          "type": "address"
        }
      ],
      "name": "ERC721IncorrectOwner",
      "type": "error"
    },
    {
      "inputs": [
        {
          "internalType": "address",
          "name": "operator",
          "type": "address"
        },
        {
          "internalType": "uint256",
          "name": "tokenId",
          "type": "uint256"
        }
      ],
      "name": "ERC721InsufficientApproval",
      "type": "error"
    },
    {
      "inputs": [
        {
          "internalType": "address",
          "name": "approver",
          "type": "address"
        }
      ],
      "name": "ERC721InvalidApprover",
      "type": "error"
    },
    {
      "inputs": [
        {
          "internalType": "address",
          "name": "operator",
          "type": "address"
        }
      ],
      "name": "ERC721InvalidOperator",
      "type": "error"
    },
    {
      "inputs": [
        {
          "internalType": "address",
          "name": "owner",
          "type": "address"
        }
      ],
      "name": "ERC721InvalidOwner",
      "type": "error"
    },
    {
      "inputs": [
        {
          "internalType": "address",
          "name": "receiver",
          "type": "address"
        }
      ],
      "name": "ERC721InvalidReceiver",
      "type": "error"
    },
    {
      "inputs": [
        {
          "internalType": "address",
          "name": "sender",
          "type": "address"
        }
      ],
      "name": "ERC721InvalidSender",
      "type": "error"
    },
    {
      "inputs": [
        {
          "internalType": "uint256",
          "name": "tokenId",
          "type": "uint256"
        }
      ],
      "name": "ERC721NonexistentToken",
      "type": "error"
    },
    {
      "inputs": [
        {
          "internalType": "address",
          "name": "owner",
          "type": "address"
        }
      ],
      "name": "OwnableInvalidOwner",
      "type": "error"
    },
    {
      "inputs": [
        {
          "internalType": "address",
          "name": "account",
          "type": "address"
        }
      ],
      "name": "OwnableUnauthorizedAccount",
      "type": "error"
    },
    {
      "inputs": [],
      "name": "ReentrancyGuardReentrantCall",
      "type": "error"
    },
    {
      "anonymous": false,
      "inputs": [
        {
          "indexed": true,
          "internalType": "address",
          "name": "owner",
          "type": "address"
        },
        {
          "indexed": true,
          "internalType": "address",
          "name": "approved",
          "type": "address"
        },
        {
          "indexed": true,
          "internalType": "uint256",
          "name": "tokenId",
          "type": "uint256"
        }
      ],
      "name": "Approval",
      "type": "event"
    },
    {
      "anonymous": false,
      "inputs": [
        {
          "indexed": true,
          "internalType": "address",
          "name": "owner",
          "type": "address"
        },
        {
          "indexed": true,
          "internalType": "address",
          "name": "operator",
          "type": "address"
        },
        {
          "indexed": false,
          "internalType": "bool",
          "name": "approved",
          "type": "bool"
        }
      ],
      "name": "ApprovalForAll",
      "type": "event"
    },
    {
      "anonymous": false,
      "inputs": [
        {
          "indexed": true,
          "internalType": "address",
          "name": "previousOwner",
          "type": "address"
        },
        {
          "indexed": true,
          "internalType": "address",
          "name": "newOwner",
          "type": "address"
        }
      ],
      "name": "OwnershipTransferred",
      "type": "event"
    },
    {
      "anonymous": false,
      "inputs": [
        {
          "indexed": true,
          "internalType": "uint256",
          "name": "tokenId",
          "type": "uint256"
        },
        {
          "indexed": true,
          "internalType": "address",
          "name": "loser",
          "type": "address"
        },
        {
          "indexed": true,
          "internalType": "address",
          "name": "winner",
          "type": "address"
        },
        {
          "indexed": false,
          "internalType": "uint256",
          "name": "payoutRonke",
          "type": "uint256"
        }
      ],
      "name": "TicketDestroyed",
      "type": "event"
    },
    {
      "anonymous": false,
      "inputs": [
        {
          "indexed": true,
          "internalType": "address",
          "name": "owner",
          "type": "address"
        },
        {
          "indexed": true,
          "internalType": "uint256",
          "name": "tokenId",
          "type": "uint256"
        }
      ],
      "name": "TicketMinted",
      "type": "event"
    },
    {
      "anonymous": false,
      "inputs": [
        {
          "indexed": true,
          "internalType": "address",
          "name": "from",
          "type": "address"
        },
        {
          "indexed": true,
          "internalType": "address",
          "name": "to",
          "type": "address"
        },
        {
          "indexed": true,
          "internalType": "uint256",
          "name": "tokenId",
          "type": "uint256"
        }
      ],
      "name": "Transfer",
      "type": "event"
    },
    {
      "inputs": [],
      "name": "MINT_COST",
      "outputs": [
        {
          "internalType": "uint256",
          "name": "",
          "type": "uint256"
        }
      ],
      "stateMutability": "view",
      "type": "function"
    },
    {
      "inputs": [],
      "name": "WIN_REWARD",
      "outputs": [
        {
          "internalType": "uint256",
          "name": "",
          "type": "uint256"
        }
      ],
      "stateMutability": "view",
      "type": "function"
    },
    {
      "inputs": [
        {
          "internalType": "address",
          "name": "",
          "type": "address"
        }
      ],
      "name": "activeTokenIdOf",
      "outputs": [
        {
          "internalType": "uint256",
          "name": "",
          "type": "uint256"
        }
      ],
      "stateMutability": "view",
      "type": "function"
    },
    {
      "inputs": [
        {
          "internalType": "address",
          "name": "to",
          "type": "address"
        },
        {
          "internalType": "uint256",
          "name": "tokenId",
          "type": "uint256"
        }
      ],
      "name": "approve",
      "outputs": [],
      "stateMutability": "nonpayable",
      "type": "function"
    },
    {
      "inputs": [
        {
          "internalType": "address",
          "name": "owner",
          "type": "address"
        }
      ],
      "name": "balanceOf",
      "outputs": [
        {
          "internalType": "uint256",
          "name": "",
          "type": "uint256"
        }
      ],
      "stateMutability": "view",
      "type": "function"
    },
    {
      "inputs": [
        {
          "internalType": "uint256",
          "name": "tokenId",
          "type": "uint256"
        }
      ],
      "name": "getApproved",
      "outputs": [
        {
          "internalType": "address",
          "name": "",
          "type": "address"
        }
      ],
      "stateMutability": "view",
      "type": "function"
    },
    {
      "inputs": [
        {
          "internalType": "address",
          "name": "owner",
          "type": "address"
        },
        {
          "internalType": "address",
          "name": "operator",
          "type": "address"
        }
      ],
      "name": "isApprovedForAll",
      "outputs": [
        {
          "internalType": "bool",
          "name": "",
          "type": "bool"
        }
      ],
      "stateMutability": "view",
      "type": "function"
    },
    {
      "inputs": [
        {
          "internalType": "uint256",
          "name": "",
          "type": "uint256"
        }
      ],
      "name": "isDestroyed",
      "outputs": [
        {
          "internalType": "bool",
          "name": "",
          "type": "bool"
        }
      ],
      "stateMutability": "view",
      "type": "function"
    },
    {
      "inputs": [
        {
          "components": [
            {
              "internalType": "uint16",
              "name": "maxHP",
              "type": "uint16"
            },
            {
              "internalType": "uint16",
              "name": "maxArmor",
              "type": "uint16"
            },
            {
              "internalType": "uint16",
              "name": "dmg",
              "type": "uint16"
            },
            {
              "internalType": "uint8",
              "name": "critChance",
              "type": "uint8"
            },
            {
              "internalType": "uint8",
              "name": "accuracy",
              "type": "uint8"
            }
          ],
          "internalType": "struct UfoTicket.Stats",
          "name": "s",
          "type": "tuple"
        }
      ],
      "name": "mint",
      "outputs": [
        {
          "internalType": "uint256",
          "name": "tokenId",
          "type": "uint256"
        }
      ],
      "stateMutability": "nonpayable",
      "type": "function"
    },
    {
      "inputs": [],
      "name": "name",
      "outputs": [
        {
          "internalType": "string",
          "name": "",
          "type": "string"
        }
      ],
      "stateMutability": "view",
      "type": "function"
    },
    {
      "inputs": [],
      "name": "owner",
      "outputs": [
        {
          "internalType": "address",
          "name": "",
          "type": "address"
        }
      ],
      "stateMutability": "view",
      "type": "function"
    },
    {
      "inputs": [
        {
          "internalType": "uint256",
          "name": "tokenId",
          "type": "uint256"
        }
      ],
      "name": "ownerOf",
      "outputs": [
        {
          "internalType": "address",
          "name": "",
          "type": "address"
        }
      ],
      "stateMutability": "view",
      "type": "function"
    },
    {
      "inputs": [],
      "name": "renounceOwnership",
      "outputs": [],
      "stateMutability": "nonpayable",
      "type": "function"
    },
    {
      "inputs": [
        {
          "internalType": "uint256",
          "name": "loserTokenId",
          "type": "uint256"
        },
        {
          "internalType": "address",
          "name": "winner",
          "type": "address"
        }
      ],
      "name": "resolveMatch",
      "outputs": [],
      "stateMutability": "nonpayable",
      "type": "function"
    },
    {
      "inputs": [],
      "name": "ronke",
      "outputs": [
        {
          "internalType": "contract IERC20",
          "name": "",
          "type": "address"
        }
      ],
      "stateMutability": "view",
      "type": "function"
    },
    {
      "inputs": [
        {
          "internalType": "address",
          "name": "from",
          "type": "address"
        },
        {
          "internalType": "address",
          "name": "to",
          "type": "address"
        },
        {
          "internalType": "uint256",
          "name": "tokenId",
          "type": "uint256"
        }
      ],
      "name": "safeTransferFrom",
      "outputs": [],
      "stateMutability": "nonpayable",
      "type": "function"
    },
    {
      "inputs": [
        {
          "internalType": "address",
          "name": "from",
          "type": "address"
        },
        {
          "internalType": "address",
          "name": "to",
          "type": "address"
        },
        {
          "internalType": "uint256",
          "name": "tokenId",
          "type": "uint256"
        },
        {
          "internalType": "bytes",
          "name": "data",
          "type": "bytes"
        }
      ],
      "name": "safeTransferFrom",
      "outputs": [],
      "stateMutability": "nonpayable",
      "type": "function"
    },
    {
      "inputs": [
        {
          "internalType": "address",
          "name": "operator",
          "type": "address"
        },
        {
          "internalType": "bool",
          "name": "approved",
          "type": "bool"
        }
      ],
      "name": "setApprovalForAll",
      "outputs": [],
      "stateMutability": "nonpayable",
      "type": "function"
    },
    {
      "inputs": [
        {
          "internalType": "uint256",
          "name": "",
          "type": "uint256"
        }
      ],
      "name": "statsOf",
      "outputs": [
        {
          "internalType": "uint16",
          "name": "maxHP",
          "type": "uint16"
        },
        {
          "internalType": "uint16",
          "name": "maxArmor",
          "type": "uint16"
        },
        {
          "internalType": "uint16",
          "name": "dmg",
          "type": "uint16"
        },
        {
          "internalType": "uint8",
          "name": "critChance",
          "type": "uint8"
        },
        {
          "internalType": "uint8",
          "name": "accuracy",
          "type": "uint8"
        }
      ],
      "stateMutability": "view",
      "type": "function"
    },
    {
      "inputs": [
        {
          "internalType": "bytes4",
          "name": "interfaceId",
          "type": "bytes4"
        }
      ],
      "name": "supportsInterface",
      "outputs": [
        {
          "internalType": "bool",
          "name": "",
          "type": "bool"
        }
      ],
      "stateMutability": "view",
      "type": "function"
    },
    {
      "inputs": [],
      "name": "symbol",
      "outputs": [
        {
          "internalType": "string",
          "name": "",
          "type": "string"
        }
      ],
      "stateMutability": "view",
      "type": "function"
    },
    {
      "inputs": [
        {
          "internalType": "uint256",
          "name": "tokenId",
          "type": "uint256"
        }
      ],
      "name": "tokenURI",
      "outputs": [
        {
          "internalType": "string",
          "name": "",
          "type": "string"
        }
      ],
      "stateMutability": "view",
      "type": "function"
    },
    {
      "inputs": [
        {
          "internalType": "address",
          "name": "from",
          "type": "address"
        },
        {
          "internalType": "address",
          "name": "to",
          "type": "address"
        },
        {
          "internalType": "uint256",
          "name": "tokenId",
          "type": "uint256"
        }
      ],
      "name": "transferFrom",
      "outputs": [],
      "stateMutability": "nonpayable",
      "type": "function"
    },
    {
      "inputs": [
        {
          "internalType": "address",
          "name": "newOwner",
          "type": "address"
        }
      ],
      "name": "transferOwnership",
      "outputs": [],
      "stateMutability": "nonpayable",
      "type": "function"
    }
  ],
  "bytecode": "0x60a060405260016008553480156200001657600080fd5b5060405162001bc638038062001bc683398101604081905262000039916200018a565b336040518060400160405280601181526020017014195dd4195dc8155193c8151a58dad95d607a1b8152506040518060400160405280600381526020016255464f60e81b815250816000908162000091919062000261565b506001620000a0828262000261565b5050506001600160a01b038116620000d357604051631e4fbdf760e01b8152600060048201526024015b60405180910390fd5b620000de8162000138565b5060016007556001600160a01b038116620001265760405162461bcd60e51b81526020600482015260076024820152660726f6e6b653d360cc1b6044820152606401620000ca565b6001600160a01b03166080526200032d565b600680546001600160a01b038381166001600160a01b0319831681179093556040519116919082907f8be0079c531659141344cd1fd0a4f28419497f9722a3daafe3b4186f6b6457e090600090a35050565b6000602082840312156200019d57600080fd5b81516001600160a01b0381168114620001b557600080fd5b9392505050565b634e487b7160e01b600052604160045260246000fd5b600181811c90821680620001e757607f821691505b6020821081036200020857634e487b7160e01b600052602260045260246000fd5b50919050565b601f8211156200025c57600081815260208120601f850160051c81016020861015620002375750805b601f850160051c820191505b81811015620002585782815560010162000243565b5050505b505050565b81516001600160401b038111156200027d576200027d620001bc565b62000295816200028e8454620001d2565b846200020e565b602080601f831160018114620002cd5760008415620002b45750858301515b600019600386901b1c1916600185901b17855562000258565b600085815260208120601f198616915b82811015620002fe57888601518255948401946001909101908401620002dd565b50858210156200031d5787850151600019600388901b60f8161c191681555b5050505050600190811b01905550565b60805161186f62000357600039600081816101df0152818161059501526108af015261186f6000f3fe608060405234801561001057600080fd5b50600436106101585760003560e01c806370a08231116100c3578063a22cb4651161007c578063a22cb46514610383578063b88d4fde14610396578063c662e481146103a9578063c87b56dd146103b9578063e985e9c5146103cc578063f2fde38b146103df57600080fd5b806370a08231146102b1578063715018a6146102c45780637bc5d64d146102cc5780638da5cb5b1461035a57806395d89b411461036b57806399e73bf71461037357600080fd5b80631586033e116101155780631586033e1461022457806323b872dd1461024557806342842e0e1461025857806351948a041461026b5780636352211e1461028b57806366a0fc561461029e57600080fd5b806301ffc9a71461015d57806306fdde0314610185578063081812fc1461019a578063095ea7b3146101c55780630efdf641146101da578063142916f814610201575b600080fd5b61017061016b366004611374565b6103f2565b60405190151581526020015b60405180910390f35b61018d610444565b60405161017c91906113e1565b6101ad6101a83660046113f4565b6104d6565b6040516001600160a01b03909116815260200161017c565b6101d86101d3366004611424565b6104ff565b005b6101ad7f000000000000000000000000000000000000000000000000000000000000000081565b61017061020f3660046113f4565b600a6020526000908152604090205460ff1681565b61023761023236600461144e565b61050e565b60405190815260200161017c565b6101d8610253366004611466565b6106e1565b6101d8610266366004611466565b61076c565b6102376102793660046114a2565b600b6020526000908152604090205481565b6101ad6102993660046113f4565b61078c565b6101d86102ac3660046114bd565b610797565b6102376102bf3660046114a2565b6109c0565b6101d8610a08565b6103216102da3660046113f4565b60096020526000908152604090205461ffff808216916201000081048216916401000000008204169060ff6601000000000000820481169167010000000000000090041685565b6040805161ffff96871681529486166020860152929094169183019190915260ff9081166060830152909116608082015260a00161017c565b6006546001600160a01b03166101ad565b61018d610a1c565b61023768056bc75e2d6310000081565b6101d86103913660046114f7565b610a2b565b6101d86103a4366004611544565b610a36565b610237680ad78ebc5ac620000081565b61018d6103c73660046113f4565b610a4e565b6101706103da366004611620565b610ac3565b6101d86103ed3660046114a2565b610af1565b60006001600160e01b031982166380ac58cd60e01b148061042357506001600160e01b03198216635b5e139f60e01b145b8061043e57506301ffc9a760e01b6001600160e01b03198316145b92915050565b6060600080546104539061164a565b80601f016020809104026020016040519081016040528092919081815260200182805461047f9061164a565b80156104cc5780601f106104a1576101008083540402835291602001916104cc565b820191906000526020600020905b8154815290600101906020018083116104af57829003601f168201915b5050505050905090565b60006104e182610b2f565b506000828152600460205260409020546001600160a01b031661043e565b61050a828233610b68565b5050565b6000610518610b75565b336000908152600b60205260409020541561056b5760405162461bcd60e51b815260206004820152600e60248201526d616c72656164792061637469766560901b60448201526064015b60405180910390fd5b6040516323b872dd60e01b8152336004820152306024820152680ad78ebc5ac620000060448201527f00000000000000000000000000000000000000000000000000000000000000006001600160a01b0316906323b872dd906064016020604051808303816000875af11580156105e6573d6000803e3d6000fd5b505050506040513d601f19601f8201168201806040525081019061060a919061167e565b6106565760405162461bcd60e51b815260206004820152601960248201527f726f6e6b65207472616e7366657246726f6d206661696c6564000000000000006044820152606401610562565b600880549060006106668361169b565b909155506000818152600960205260409020909150829061068782826116e9565b5050336000818152600b602052604090208290556106a59082610b9f565b604051819033907fe3bc6f5972e89b7adec47f0277204f27cd981570e200dd4d408093535c9e8e6990600090a36106dc6001600755565b919050565b6001600160a01b03821661070b57604051633250574960e11b815260006004820152602401610562565b6000610718838333610bb9565b9050836001600160a01b0316816001600160a01b031614610766576040516364283d7b60e01b81526001600160a01b0380861660048301526024820184905282166044820152606401610562565b50505050565b61078783838360405180602001604052806000815250610a36565b505050565b600061043e82610b2f565b61079f610c29565b6107a7610b75565b6001600160a01b0381166107e85760405162461bcd60e51b8152602060048201526008602482015267077696e6e65723d360c41b6044820152606401610562565b6000828152600a602052604090205460ff161561083b5760405162461bcd60e51b8152602060048201526011602482015270185b1c9958591e4819195cdd1c9bde5959607a1b6044820152606401610562565b60006108468361078c565b6000848152600a60209081526040808320805460ff191660011790556001600160a01b0384168352600b909152812055905061088183610c56565b60405163a9059cbb60e01b81526001600160a01b03838116600483015268056bc75e2d6310000060248301527f0000000000000000000000000000000000000000000000000000000000000000169063a9059cbb906044016020604051808303816000875af11580156108f8573d6000803e3d6000fd5b505050506040513d601f19601f8201168201806040525081019061091c919061167e565b61095e5760405162461bcd60e51b81526020600482015260136024820152721c9bdb9ad9481c185e5bdd5d0819985a5b1959606a1b6044820152606401610562565b816001600160a01b0316816001600160a01b0316847f25e25efc8b59edda6b7bc6fa195da4afb75731d6f4dec0a9b222f122ccfee87168056bc75e2d631000006040516109ad91815260200190565b60405180910390a45061050a6001600755565b60006001600160a01b0382166109ec576040516322718ad960e21b815260006004820152602401610562565b506001600160a01b031660009081526003602052604090205490565b610a10610c29565b610a1a6000610c91565b565b6060600180546104539061164a565b61050a338383610ce3565b610a418484846106e1565b6107663385858585610d82565b6060610a5982610b2f565b506000610a7160408051602081019091526000815290565b90506000815111610a915760405180602001604052806000815250610abc565b80610a9b84610ead565b604051602001610aac9291906117b0565b6040516020818303038152906040525b9392505050565b6001600160a01b03918216600090815260056020908152604080832093909416825291909152205460ff1690565b610af9610c29565b6001600160a01b038116610b2357604051631e4fbdf760e01b815260006004820152602401610562565b610b2c81610c91565b50565b6000818152600260205260408120546001600160a01b03168061043e57604051637e27328960e01b815260048101849052602401610562565b6107878383836001610f40565b600260075403610b9857604051633ee5aeb560e01b815260040160405180910390fd5b6002600755565b61050a828260405180602001604052806000815250611046565b6000610bc684848461105e565b90506001600160a01b0381161580610be557506001600160a01b038416155b610abc5760405162461bcd60e51b81526020600482015260156024820152745342543a206e6f6e2d7472616e7366657261626c6560581b6044820152606401610562565b6006546001600160a01b03163314610a1a5760405163118cdaa760e01b8152336004820152602401610562565b6000610c656000836000610bb9565b90506001600160a01b03811661050a57604051637e27328960e01b815260048101839052602401610562565b600680546001600160a01b038381166001600160a01b0319831681179093556040519116919082907f8be0079c531659141344cd1fd0a4f28419497f9722a3daafe3b4186f6b6457e090600090a35050565b6001600160a01b038216610d1557604051630b61174360e31b81526001600160a01b0383166004820152602401610562565b6001600160a01b03838116600081815260056020908152604080832094871680845294825291829020805460ff191686151590811790915591519182527f17307eab39ab6107e8899845ad3d59bd9653f200f220920489ca2b5937696c31910160405180910390a3505050565b6001600160a01b0383163b15610ea657604051630a85bd0160e11b81526001600160a01b0384169063150b7a0290610dc49088908890879087906004016117df565b6020604051808303816000875af1925050508015610dff575060408051601f3d908101601f19168201909252610dfc9181019061181c565b60015b610e68573d808015610e2d576040519150601f19603f3d011682016040523d82523d6000602084013e610e32565b606091505b508051600003610e6057604051633250574960e11b81526001600160a01b0385166004820152602401610562565b805160208201fd5b6001600160e01b03198116630a85bd0160e11b14610ea457604051633250574960e11b81526001600160a01b0385166004820152602401610562565b505b5050505050565b60606000610eba83611157565b600101905060008167ffffffffffffffff811115610eda57610eda61152e565b6040519080825280601f01601f191660200182016040528015610f04576020820181803683370190505b5090508181016020015b600019016f181899199a1a9b1b9c1cb0b131b232b360811b600a86061a8153600a8504945084610f0e57509392505050565b8080610f5457506001600160a01b03821615155b15611016576000610f6484610b2f565b90506001600160a01b03831615801590610f905750826001600160a01b0316816001600160a01b031614155b8015610fa35750610fa18184610ac3565b155b15610fcc5760405163a9fbf51f60e01b81526001600160a01b0384166004820152602401610562565b81156110145783856001600160a01b0316826001600160a01b03167f8c5be1e5ebec7d5bd14f71427d1e84f3dd0314c0f7b2291e5b200ac8c7c3b92560405160405180910390a45b505b5050600090815260046020526040902080546001600160a01b0319166001600160a01b0392909216919091179055565b611050838361122f565b610787336000858585610d82565b6000828152600260205260408120546001600160a01b039081169083161561108b5761108b818486611294565b6001600160a01b038116156110c9576110a8600085600080610f40565b6001600160a01b038116600090815260036020526040902080546000190190555b6001600160a01b038516156110f8576001600160a01b0385166000908152600360205260409020805460010190555b60008481526002602052604080822080546001600160a01b0319166001600160a01b0389811691821790925591518793918516917fddf252ad1be2c89b69c2b068fc378daa952ba7f163c4a11628f55a4df523b3ef91a4949350505050565b60008072184f03e93ff9f4daa797ed6e38ed64bf6a1f0160401b83106111965772184f03e93ff9f4daa797ed6e38ed64bf6a1f0160401b830492506040015b6d04ee2d6d415b85acef810000000083106111c2576d04ee2d6d415b85acef8100000000830492506020015b662386f26fc1000083106111e057662386f26fc10000830492506010015b6305f5e10083106111f8576305f5e100830492506008015b612710831061120c57612710830492506004015b6064831061121e576064830492506002015b600a831061043e5760010192915050565b6001600160a01b03821661125957604051633250574960e11b815260006004820152602401610562565b600061126783836000610bb9565b90506001600160a01b03811615610787576040516339e3563760e11b815260006004820152602401610562565b61129f8383836112f8565b610787576001600160a01b0383166112cd57604051637e27328960e01b815260048101829052602401610562565b60405163177e802f60e01b81526001600160a01b038316600482015260248101829052604401610562565b60006001600160a01b038316158015906113565750826001600160a01b0316846001600160a01b0316148061133257506113328484610ac3565b8061135657506000828152600460205260409020546001600160a01b038481169116145b949350505050565b6001600160e01b031981168114610b2c57600080fd5b60006020828403121561138657600080fd5b8135610abc8161135e565b60005b838110156113ac578181015183820152602001611394565b50506000910152565b600081518084526113cd816020860160208601611391565b601f01601f19169290920160200192915050565b602081526000610abc60208301846113b5565b60006020828403121561140657600080fd5b5035919050565b80356001600160a01b03811681146106dc57600080fd5b6000806040838503121561143757600080fd5b6114408361140d565b946020939093013593505050565b600060a0828403121561146057600080fd5b50919050565b60008060006060848603121561147b57600080fd5b6114848461140d565b92506114926020850161140d565b9150604084013590509250925092565b6000602082840312156114b457600080fd5b610abc8261140d565b600080604083850312156114d057600080fd5b823591506114e06020840161140d565b90509250929050565b8015158114610b2c57600080fd5b6000806040838503121561150a57600080fd5b6115138361140d565b91506020830135611523816114e9565b809150509250929050565b634e487b7160e01b600052604160045260246000fd5b6000806000806080858703121561155a57600080fd5b6115638561140d565b93506115716020860161140d565b925060408501359150606085013567ffffffffffffffff8082111561159557600080fd5b818701915087601f8301126115a957600080fd5b8135818111156115bb576115bb61152e565b604051601f8201601f19908116603f011681019083821181831017156115e3576115e361152e565b816040528281528a60208487010111156115fc57600080fd5b82602086016020830137600060208483010152809550505050505092959194509250565b6000806040838503121561163357600080fd5b61163c8361140d565b91506114e06020840161140d565b600181811c9082168061165e57607f821691505b60208210810361146057634e487b7160e01b600052602260045260246000fd5b60006020828403121561169057600080fd5b8151610abc816114e9565b6000600182016116bb57634e487b7160e01b600052601160045260246000fd5b5060010190565b6000813561ffff8116811461043e57600080fd5b6000813560ff8116811461043e57600080fd5b61ffff6116f5836116c2565b1681548161ffff19821617835563ffff0000611713602086016116c2565b60101b16808363ffffffff1984161717845565ffff00000000611738604087016116c2565b60201b168365ffffffffffff1984161793508084831717855566ff000000000000611765606088016116d6565b60301b1666ff000000000000198516831782171785555050505061050a61178e608084016116d6565b825467ff00000000000000191660389190911b67ff0000000000000016178255565b600083516117c2818460208801611391565b8351908301906117d6818360208801611391565b01949350505050565b6001600160a01b0385811682528416602082015260408101839052608060608201819052600090611812908301846113b5565b9695505050505050565b60006020828403121561182e57600080fd5b8151610abc8161135e56fea2646970667358221220ec776635a3fa1254366769161dd2642a59f123bf7b6d17373faaccb50d4ce1f864736f6c63430008140033",
  "linkReferences": {},
  "deployedLinkReferences": {}
}